{
  "contractName": "SOURCE",
  "abi": [
    {
      "constant": true,
      "inputs": [],
      "name": "name",
      "outputs": [
        {
          "name": "",
          "type": "string"
        }
      ],
      "payable": false,
      "stateMutability": "view",
      "type": "function"
    },
    {
      "anonymous": false,
      "inputs": [
        {
          "indexed": false,
          "name": "_from",
          "type": "address"
        },
        {
          "indexed": false,
          "name": "_to",
          "type": "address"
        },
        {
          "indexed": false,
          "name": "_RepId",
          "type": "uint256"
        }
      ],
      "name": "Transfer",
      "type": "event"
    },
    {
      "constant": false,
      "inputs": [
        {
          "name": "_RepId",
          "type": "uint256"
        }
      ],
      "name": "expireReputation",
      "outputs": [],
      "payable": false,
      "stateMutability": "nonpayable",
      "type": "function"
    },
    {
      "constant": false,
      "inputs": [
        {
          "name": "_to",
          "type": "address"
        },
        {
          "name": "_healthScore",
          "type": "uint32"
        },
        {
          "name": "_trustScore",
          "type": "uint32"
        },
        {
          "name": "_patienceScore",
          "type": "uint32"
        }
      ],
      "name": "setReputation",
      "outputs": [],
      "payable": false,
      "stateMutability": "nonpayable",
      "type": "function"
    },
    {
      "constant": true,
      "inputs": [
        {
          "name": "_owner",
          "type": "address"
        }
      ],
      "name": "getReputionIdWithAddress",
      "outputs": [
        {
          "name": "",
          "type": "uint256[]"
        }
      ],
      "payable": false,
      "stateMutability": "view",
      "type": "function"
    },
    {
      "constant": true,
      "inputs": [
        {
          "name": "_RepId",
          "type": "uint256"
        }
      ],
      "name": "getReputationWithId",
      "outputs": [
        {
          "name": "_creationTime",
          "type": "uint64"
        },
        {
          "name": "_healthScore",
          "type": "uint32"
        },
        {
          "name": "_trustScore",
          "type": "uint32"
        },
        {
          "name": "_patienceScore",
          "type": "uint32"
        }
      ],
      "payable": false,
      "stateMutability": "view",
      "type": "function"
    }
  ],
  "bytecode": "0x608060405234801561001057600080fd5b50610ac8806100206000396000f30060806040526004361061006d576000357c0100000000000000000000000000000000000000000000000000000000900463ffffffff16806306fdde03146100725780631bec462014610102578063441970501461012f5780637b1d34a5146101bd578063f4a536a314610230575b600080fd5b34801561007e57600080fd5b506100876102c8565b6040518080602001828103825283818151815260200191508051906020019080838360005b838110156100c75780820151818401526020810190506100ac565b50505050905090810190601f1680156100f45780820380516001836020036101000a031916815260200191505b509250505060405180910390f35b34801561010e57600080fd5b5061012d60048036038101908080359060200190929190505050610301565b005b34801561013b57600080fd5b5061015a6004803603810190808035906020019092919050505061032f565b604051808567ffffffffffffffff1667ffffffffffffffff1681526020018463ffffffff1663ffffffff1681526020018363ffffffff1663ffffffff1681526020018263ffffffff1663ffffffff16815260200194505050505060405180910390f35b3480156101c957600080fd5b5061022e600480360381019080803573ffffffffffffffffffffffffffffffffffffffff169060200190929190803563ffffffff169060200190929190803563ffffffff169060200190929190803563ffffffff1690602001909291905050506103bd565b005b34801561023c57600080fd5b50610271600480360381019080803573ffffffffffffffffffffffffffffffffffffffff169060200190929190505050610550565b6040518080602001828103825283818151815260200191508051906020019060200280838360005b838110156102b4578082015181840152602081019050610299565b505050509050019250505060405180910390f35b6040805190810160405280600681526020017f534f55524345000000000000000000000000000000000000000000000000000081525081565b61030b33826105e7565b151561031657600080fd5b6103203382610653565b61032c3360008361070f565b50565b6000806000806000808681548110151561034557fe5b906000526020600020906002020190508060000160149054906101000a900467ffffffffffffffff16945080600001601c9054906101000a900463ffffffff1693508060010160009054906101000a900463ffffffff1692508060010160049054906101000a900463ffffffff169150509193509193565b6000803373ffffffffffffffffffffffffffffffffffffffff168673ffffffffffffffffffffffffffffffffffffffff16141515156103fb57600080fd5b60008563ffffffff161180156104185750600a8563ffffffff1611155b151561042357600080fd5b60008463ffffffff161180156104405750600a8463ffffffff1611155b151561044b57600080fd5b60008363ffffffff161180156104685750600a8363ffffffff1611155b151561047357600080fd5b3391506104838287878787610854565b9050600160008773ffffffffffffffffffffffffffffffffffffffff1673ffffffffffffffffffffffffffffffffffffffff16815260200190815260200160002060008154809291906001019190505550600260008773ffffffffffffffffffffffffffffffffffffffff1673ffffffffffffffffffffffffffffffffffffffff16815260200190815260200160002081908060018154018082558091505090600182039060005260206000200160009091929091909150555061054833878361070f565b505050505050565b6060600260008373ffffffffffffffffffffffffffffffffffffffff1673ffffffffffffffffffffffffffffffffffffffff1681526020019081526020016000208054806020026020016040519081016040528092919081815260200182805480156105db57602002820191906000526020600020905b8154815260200190600101908083116105c7575b50505050509050919050565b60008273ffffffffffffffffffffffffffffffffffffffff166003600084815260200190815260200160002060009054906101000a900473ffffffffffffffffffffffffffffffffffffffff1673ffffffffffffffffffffffffffffffffffffffff1614905092915050565b61065d82826105e7565b151561066857600080fd5b600160008373ffffffffffffffffffffffffffffffffffffffff1673ffffffffffffffffffffffffffffffffffffffff168152602001908152602001600020600081548092919060019003919050555060006003600083815260200190815260200160002060006101000a81548173ffffffffffffffffffffffffffffffffffffffff021916908373ffffffffffffffffffffffffffffffffffffffff1602179055505050565b600160008373ffffffffffffffffffffffffffffffffffffffff1673ffffffffffffffffffffffffffffffffffffffff16815260200190815260200160002060008154809291906001019190505550816003600083815260200190815260200160002060006101000a81548173ffffffffffffffffffffffffffffffffffffffff021916908373ffffffffffffffffffffffffffffffffffffffff1602179055507fddf252ad1be2c89b69c2b068fc378daa952ba7f163c4a11628f55a4df523b3ef838383604051808473ffffffffffffffffffffffffffffffffffffffff1673ffffffffffffffffffffffffffffffffffffffff1681526020018373ffffffffffffffffffffffffffffffffffffffff1673ffffffffffffffffffffffffffffffffffffffff168152602001828152602001935050505060405180910390a1505050565b600061085e610a3a565b600087826000019073ffffffffffffffffffffffffffffffffffffffff16908173ffffffffffffffffffffffffffffffffffffffff168152505042826020019067ffffffffffffffff16908167ffffffffffffffff168152505085826040019063ffffffff16908163ffffffff168152505084826060019063ffffffff16908163ffffffff168152505083826080019063ffffffff16908163ffffffff168152505060016000839080600181540180825580915050906001820390600052602060002090600202016000909192909190915060008201518160000160006101000a81548173ffffffffffffffffffffffffffffffffffffffff021916908373ffffffffffffffffffffffffffffffffffffffff16021790555060208201518160000160146101000a81548167ffffffffffffffff021916908367ffffffffffffffff160217905550604082015181600001601c6101000a81548163ffffffff021916908363ffffffff16021790555060608201518160010160006101000a81548163ffffffff021916908363ffffffff16021790555060808201518160010160046101000a81548163ffffffff021916908363ffffffff1602179055505050039050610a2c6000888361070f565b809250505095945050505050565b60a060405190810160405280600073ffffffffffffffffffffffffffffffffffffffff168152602001600067ffffffffffffffff168152602001600063ffffffff168152602001600063ffffffff168152602001600063ffffffff16815250905600a165627a7a723058201ee005b9dafa503c5aa558bcdce0a8ef83233a824375530212b10b05a0b5bd1c0029",
  "source": "pragma solidity ^0.4.18;\n\n/**\n* ERC-271 NFT Standard\n*/\ncontract SOURCE {\n    /**\n    * RepId - Reputation identifier. It is the relationship between party A and party B. \n    */\n\n    /***\n    Events \n    ***/\n    event Transfer(address _from, address _to, uint256 _RepId);\n\n    /***\n    Data Types \n    ***/\n\n    struct Reputation \n    { \n        address endorser;\n        // Time the reputation was created.\n        uint64 creationTime;\n        \n        // Score judging the health choices of the recipient. \n        uint32 healthScore;\n\n        // Score judging the trustworthiness of the recipient.\n        uint32 trustScore;\n\n        // Score judging the patience/delayed gratification of the recipient.\n        uint32 patienceScore; \n    }\n\n    Reputation[] reputations;\n\n    // Mapping that counts the number of reputations a person has. 2^32 is maximum reputation.\n    mapping (address => uint256) internal ownershipReputationsCount;\n\n    // Mapping each user to list of reputations.\n    mapping (address => uint256[]) internal ownerToReputations;\n\n    // Maps reputation id to owner.\n    mapping (uint256 => address) internal reputationToOwner;\n\n    // Mapping from Rep ID to index of the owner tokens list \n    mapping(uint256 => uint256) internal ownedReputationsIndex; \n    \n    // Mapping from Rep ID id to position in the allTokens array \n    mapping(uint256 => uint256) internal allReputationsIndex;\n\n    /*** \n    Utility Functions\n    ***/\n\n    // Transfers reputation from user to another user.\n    function _transfer(address _from,address _to,uint256 _RepId) internal\n    {\n        ownershipReputationsCount[_to]++;\n\n        reputationToOwner[_RepId] = _to;\n\n        emit Transfer(_from,_to,_RepId);\n    }\n\n    // Returns the owner of a reputation.\n    function _owns(address _owner, uint256 _RepId) view internal returns (bool) \n    {\n        return reputationToOwner[_RepId] == _owner;\n    }\n\n    // Removes reputation from an address.\n    function _removeReputationFrom(address _from, uint256 _RepId) internal {\n        \n        // Check that the address is owner of reputation.\n        require(_owns(_from,_RepId));\n\n        // Reduce count of reputations.\n        ownershipReputationsCount[_from]--;\n      \n        // Change owner of reputation.\n        reputationToOwner[_RepId] = address(0);\n    }\n\n    // Creates reputation.\n    function _createReputation(address endorser, address _owner, uint32 _healthScore, uint32 _trustScore, uint32 _patienceScore) internal returns (uint256)\n    {\n        Reputation memory _reputation;\n        \n        //@TODO - change address of endorser to a hash, anonymize the endorser.\n        _reputation.endorser = address(endorser);\n\n        _reputation.creationTime = uint64(block.timestamp);\n        _reputation.healthScore = uint32(_healthScore);\n        _reputation.trustScore = uint32(_trustScore);\n        _reputation.patienceScore = uint32(_patienceScore);\n        \n        uint256 repId = reputations.push(_reputation) - 1;\n\n        _transfer(address(0),_owner, repId);\n\n        return repId;\n    }\n\n    string public constant name = \"SOURCE\";\n    \n    function expireReputation(uint256 _RepId) external\n    {\n        // Only owner of reputation can expire the reputation.\n        require(_owns(msg.sender,_RepId));\n\n        // @TODO - make sure that the reputation is old enough (5 years)\n        _removeReputationFrom(msg.sender, _RepId);\n        _transfer(msg.sender, address(0), _RepId);\n    }\n\n    // Sets the reputation of _to according to the scores.\n    function setReputation(address _to, uint32 _healthScore, uint32 _trustScore, uint32 _patienceScore)  external\n    {\n        require(_to != msg.sender);\n\n        require(_healthScore > 0 && _healthScore <= 10);\n        require(_trustScore > 0 && _trustScore <= 10);\n        require(_patienceScore > 0 && _patienceScore <= 10);\n\n        address endorser = msg.sender;\n        \n        uint256 repId = _createReputation(endorser, _to, _healthScore, _trustScore, _patienceScore);\n\n        // Increment number of reputations.\n        ownershipReputationsCount[_to]++;\n\n        // Add reputation to user.\n        ownerToReputations[_to].push(repId);\n\n        _transfer(msg.sender,_to,repId);\n    }\n\n    function getReputionIdWithAddress(address _owner) view external returns (uint256[])\n    {\n        return ownerToReputations[_owner];\n        // uint256[] storage allRepIds = ownerToReputations[_owner];\n\n        // uint256[] memory repIds;\n        // uint index = 0;\n\n        // for(uint i = 0; i < allRepIds.length; i++)\n        // {\n        //     if(allRepIds[i] != 0)\n        //     {   \n        //         repIds[index] = allRepIds[i];\n        //         index++;\n        //         //repIds.push(allRepIds[i]);\n        //     }\n        // }\n        // return repIds;\n    }\n\n    // function requestReputation(address _endorser) {}\n\n    function getReputationWithId(uint256 _RepId) view external \n    returns \n    (uint64 _creationTime, uint32 _healthScore, uint32 _trustScore, uint32 _patienceScore)\n    {\n        Reputation storage _reputation = reputations[_RepId];\n\n        _creationTime = _reputation.creationTime;\n        _healthScore = _reputation.healthScore;\n        _trustScore = _reputation.trustScore;\n        _patienceScore = _reputation.patienceScore;        \n    }\n\n}",
  "sourcePath": "/Users/origins/Documents/GitHub/chicago-dist-markets/src/contracts/SOURCE.sol",
  "compiler": {
    "name": "solc",
    "version": "0.4.23+commit.124ca40d.Emscripten.clang"
  },
  "schemaVersion": "2.0.0",
  "updatedAt": "2018-04-22T11:00:53.890Z"
}